:020000040000FA
:020000000928CD
:040002000034003492
:020008002428AA
:06000A00831603135130C0
:100010008F00831603178901831203138B13831632
:10002000031386012030860083160313961683126D
:1000300003138B178B158312031386011F280610D9
:100040008610061186151F288611061439203920BE
:1000500006108614392039208610061539203920DB
:1000600006118615392039208611831203130B10CF
:1000700009000000800B3A2800000000810B39289D
:02008000080076
:02400E00D420BC
:02401000FF3E71
:00000001FF
