:020000040000FA
:020000005D2879
:040002000034003492
:02000E0083125B
:100010000313271C1028A71C1B28271D262853283C
:100020009C20831203132208A300A2012714831229
:1000300003130B1009009C20831203132208A40051
:10004000A201A714831203130B1009009C20831232
:1000500003132208A500A20125183F28A5184A2845
:1000600005308312031386009C209C200A308600F2
:100070009C209C208601831203130B100900230887
:100080002407A2008312031386002715831203138B
:100090000B10090083120313860124082302860033
:1000A000861A4A2809009C20A201A701A301A401E5
:0A00B000831203130B109C200900BB
:0600BA0083160317890103
:1000C0008316031386018616831203138601831693
:1000D00003178801831603138901891583120313FB
:1000E0008901831603139616831203138B018B1752
:1000F0008B150B1083120313A001A101A201A30110
:10010000A401A501A70184289C208628831203133B
:10011000891D8F20831203132208860086289C20C5
:100120002719080083120313A20AA21998200800B5
:1001300083120313A201080083120313A00B9E284D
:06014000A10B9E2808003F
:02400E00D420BC
:02401000FF3E71
:00000001FF
