:020000040000FA
:020000000328D3
:040002000034003492
:0A0006008316031789018316031304
:1000100051308F008316031386012030860083162B
:1000200003138901083089008312031386011828FD
:10003000061486113D20891D2028861E292818288F
:1000400006143D2006103D20861E3228891D1828E2
:10005000202886153D2086113D20891D3228861EC8
:1000600018282928861506143D20861106103D20E3
:10007000861E2028891D292832280000800B3E2852
:0A00800000000000810B3D2808007D
:02400E00D420BC
:02401000FF3E71
:00000001FF
